{
  "_format": "hh-sol-artifact-1",
  "contractName": "MyNFT",
  "sourceName": "contracts/MyNFT.sol",
  "abi": [
    {
      "inputs": [],
      "stateMutability": "nonpayable",
      "type": "constructor"
    },
    {
      "anonymous": false,
      "inputs": [
        {
          "indexed": true,
          "internalType": "address",
          "name": "owner",
          "type": "address"
        },
        {
          "indexed": true,
          "internalType": "address",
          "name": "approved",
          "type": "address"
        },
        {
          "indexed": true,
          "internalType": "uint256",
          "name": "tokenId",
          "type": "uint256"
        }
      ],
      "name": "Approval",
      "type": "event"
    },
    {
      "anonymous": false,
      "inputs": [
        {
          "indexed": true,
          "internalType": "address",
          "name": "owner",
          "type": "address"
        },
        {
          "indexed": true,
          "internalType": "address",
          "name": "operator",
          "type": "address"
        },
        {
          "indexed": false,
          "internalType": "bool",
          "name": "approved",
          "type": "bool"
        }
      ],
      "name": "ApprovalForAll",
      "type": "event"
    },
    {
      "anonymous": false,
      "inputs": [
        {
          "indexed": true,
          "internalType": "address",
          "name": "previousOwner",
          "type": "address"
        },
        {
          "indexed": true,
          "internalType": "address",
          "name": "newOwner",
          "type": "address"
        }
      ],
      "name": "OwnershipTransferred",
      "type": "event"
    },
    {
      "anonymous": false,
      "inputs": [
        {
          "indexed": true,
          "internalType": "address",
          "name": "from",
          "type": "address"
        },
        {
          "indexed": true,
          "internalType": "address",
          "name": "to",
          "type": "address"
        },
        {
          "indexed": true,
          "internalType": "uint256",
          "name": "tokenId",
          "type": "uint256"
        }
      ],
      "name": "Transfer",
      "type": "event"
    },
    {
      "inputs": [
        {
          "internalType": "address",
          "name": "to",
          "type": "address"
        },
        {
          "internalType": "uint256",
          "name": "tokenId",
          "type": "uint256"
        }
      ],
      "name": "approve",
      "outputs": [],
      "stateMutability": "nonpayable",
      "type": "function"
    },
    {
      "inputs": [
        {
          "internalType": "address",
          "name": "owner",
          "type": "address"
        }
      ],
      "name": "balanceOf",
      "outputs": [
        {
          "internalType": "uint256",
          "name": "",
          "type": "uint256"
        }
      ],
      "stateMutability": "view",
      "type": "function"
    },
    {
      "inputs": [
        {
          "internalType": "uint256",
          "name": "tokenId",
          "type": "uint256"
        }
      ],
      "name": "getApproved",
      "outputs": [
        {
          "internalType": "address",
          "name": "",
          "type": "address"
        }
      ],
      "stateMutability": "view",
      "type": "function"
    },
    {
      "inputs": [
        {
          "internalType": "address",
          "name": "owner",
          "type": "address"
        },
        {
          "internalType": "address",
          "name": "operator",
          "type": "address"
        }
      ],
      "name": "isApprovedForAll",
      "outputs": [
        {
          "internalType": "bool",
          "name": "",
          "type": "bool"
        }
      ],
      "stateMutability": "view",
      "type": "function"
    },
    {
      "inputs": [],
      "name": "name",
      "outputs": [
        {
          "internalType": "string",
          "name": "",
          "type": "string"
        }
      ],
      "stateMutability": "view",
      "type": "function"
    },
    {
      "inputs": [],
      "name": "owner",
      "outputs": [
        {
          "internalType": "address",
          "name": "",
          "type": "address"
        }
      ],
      "stateMutability": "view",
      "type": "function"
    },
    {
      "inputs": [
        {
          "internalType": "uint256",
          "name": "tokenId",
          "type": "uint256"
        }
      ],
      "name": "ownerOf",
      "outputs": [
        {
          "internalType": "address",
          "name": "",
          "type": "address"
        }
      ],
      "stateMutability": "view",
      "type": "function"
    },
    {
      "inputs": [],
      "name": "renounceOwnership",
      "outputs": [],
      "stateMutability": "nonpayable",
      "type": "function"
    },
    {
      "inputs": [
        {
          "internalType": "address",
          "name": "to",
          "type": "address"
        },
        {
          "internalType": "string",
          "name": "uri",
          "type": "string"
        }
      ],
      "name": "safeMint",
      "outputs": [],
      "stateMutability": "nonpayable",
      "type": "function"
    },
    {
      "inputs": [
        {
          "internalType": "address",
          "name": "from",
          "type": "address"
        },
        {
          "internalType": "address",
          "name": "to",
          "type": "address"
        },
        {
          "internalType": "uint256",
          "name": "tokenId",
          "type": "uint256"
        }
      ],
      "name": "safeTransferFrom",
      "outputs": [],
      "stateMutability": "nonpayable",
      "type": "function"
    },
    {
      "inputs": [
        {
          "internalType": "address",
          "name": "from",
          "type": "address"
        },
        {
          "internalType": "address",
          "name": "to",
          "type": "address"
        },
        {
          "internalType": "uint256",
          "name": "tokenId",
          "type": "uint256"
        },
        {
          "internalType": "bytes",
          "name": "data",
          "type": "bytes"
        }
      ],
      "name": "safeTransferFrom",
      "outputs": [],
      "stateMutability": "nonpayable",
      "type": "function"
    },
    {
      "inputs": [
        {
          "internalType": "address",
          "name": "operator",
          "type": "address"
        },
        {
          "internalType": "bool",
          "name": "approved",
          "type": "bool"
        }
      ],
      "name": "setApprovalForAll",
      "outputs": [],
      "stateMutability": "nonpayable",
      "type": "function"
    },
    {
      "inputs": [
        {
          "internalType": "bytes4",
          "name": "interfaceId",
          "type": "bytes4"
        }
      ],
      "name": "supportsInterface",
      "outputs": [
        {
          "internalType": "bool",
          "name": "",
          "type": "bool"
        }
      ],
      "stateMutability": "view",
      "type": "function"
    },
    {
      "inputs": [],
      "name": "symbol",
      "outputs": [
        {
          "internalType": "string",
          "name": "",
          "type": "string"
        }
      ],
      "stateMutability": "view",
      "type": "function"
    },
    {
      "inputs": [
        {
          "internalType": "uint256",
          "name": "index",
          "type": "uint256"
        }
      ],
      "name": "tokenByIndex",
      "outputs": [
        {
          "internalType": "uint256",
          "name": "",
          "type": "uint256"
        }
      ],
      "stateMutability": "view",
      "type": "function"
    },
    {
      "inputs": [
        {
          "internalType": "address",
          "name": "owner",
          "type": "address"
        },
        {
          "internalType": "uint256",
          "name": "index",
          "type": "uint256"
        }
      ],
      "name": "tokenOfOwnerByIndex",
      "outputs": [
        {
          "internalType": "uint256",
          "name": "",
          "type": "uint256"
        }
      ],
      "stateMutability": "view",
      "type": "function"
    },
    {
      "inputs": [
        {
          "internalType": "uint256",
          "name": "tokenId",
          "type": "uint256"
        }
      ],
      "name": "tokenURI",
      "outputs": [
        {
          "internalType": "string",
          "name": "",
          "type": "string"
        }
      ],
      "stateMutability": "view",
      "type": "function"
    },
    {
      "inputs": [],
      "name": "totalSupply",
      "outputs": [
        {
          "internalType": "uint256",
          "name": "",
          "type": "uint256"
        }
      ],
      "stateMutability": "view",
      "type": "function"
    },
    {
      "inputs": [
        {
          "internalType": "address",
          "name": "from",
          "type": "address"
        },
        {
          "internalType": "address",
          "name": "to",
          "type": "address"
        },
        {
          "internalType": "uint256",
          "name": "tokenId",
          "type": "uint256"
        }
      ],
      "name": "transferFrom",
      "outputs": [],
      "stateMutability": "nonpayable",
      "type": "function"
    },
    {
      "inputs": [
        {
          "internalType": "address",
          "name": "newOwner",
          "type": "address"
        }
      ],
      "name": "transferOwnership",
      "outputs": [],
      "stateMutability": "nonpayable",
      "type": "function"
    }
  ],
  "bytecode": "0x60806040523480156200001157600080fd5b506040518060400160405280600581526020017f4d794e46540000000000000000000000000000000000000000000000000000008152506040518060400160405280600481526020017f4d4e465400000000000000000000000000000000000000000000000000000000815250816000908051906020019062000096929190620001a6565b508060019080519060200190620000af929190620001a6565b505050620000d2620000c6620000d860201b60201c565b620000e060201b60201c565b620002bb565b600033905090565b6000600b60009054906101000a900473ffffffffffffffffffffffffffffffffffffffff16905081600b60006101000a81548173ffffffffffffffffffffffffffffffffffffffff021916908373ffffffffffffffffffffffffffffffffffffffff1602179055508173ffffffffffffffffffffffffffffffffffffffff168173ffffffffffffffffffffffffffffffffffffffff167f8be0079c531659141344cd1fd0a4f28419497f9722a3daafe3b4186f6b6457e060405160405180910390a35050565b828054620001b49062000256565b90600052602060002090601f016020900481019282620001d8576000855562000224565b82601f10620001f357805160ff191683800117855562000224565b8280016001018555821562000224579182015b828111156200022357825182559160200191906001019062000206565b5b50905062000233919062000237565b5090565b5b808211156200025257600081600090555060010162000238565b5090565b600060028204905060018216806200026f57607f821691505b602082108114156200028657620002856200028c565b5b50919050565b7f4e487b7100000000000000000000000000000000000000000000000000000000600052602260045260246000fd5b6136a480620002cb6000396000f3fe608060405234801561001057600080fd5b506004361061012c5760003560e01c806370a08231116100ad578063b88d4fde11610071578063b88d4fde14610343578063c87b56dd1461035f578063d204c45e1461038f578063e985e9c5146103ab578063f2fde38b146103db5761012c565b806370a08231146102b1578063715018a6146102e15780638da5cb5b146102eb57806395d89b4114610309578063a22cb465146103275761012c565b806323b872dd116100f457806323b872dd146101e95780632f745c591461020557806342842e0e146102355780634f6ccce7146102515780636352211e146102815761012c565b806301ffc9a71461013157806306fdde0314610161578063081812fc1461017f578063095ea7b3146101af57806318160ddd146101cb575b600080fd5b61014b6004803603810190610146919061283b565b6103f7565b6040516101589190612c64565b60405180910390f35b610169610409565b6040516101769190612c7f565b60405180910390f35b6101996004803603810190610194919061288d565b61049b565b6040516101a69190612bfd565b60405180910390f35b6101c960048036038101906101c491906127ff565b6104e1565b005b6101d36105f9565b6040516101e09190612ec1565b60405180910390f35b61020360048036038101906101fe91906126a5565b610606565b005b61021f600480360381019061021a91906127ff565b610666565b60405161022c9190612ec1565b60405180910390f35b61024f600480360381019061024a91906126a5565b61070b565b005b61026b6004803603810190610266919061288d565b61072b565b6040516102789190612ec1565b60405180910390f35b61029b6004803603810190610296919061288d565b6107c2565b6040516102a89190612bfd565b60405180910390f35b6102cb60048036038101906102c69190612640565b610849565b6040516102d89190612ec1565b60405180910390f35b6102e9610901565b005b6102f3610915565b6040516103009190612bfd565b60405180910390f35b61031161093f565b60405161031e9190612c7f565b60405180910390f35b610341600480360381019061033c919061276f565b6109d1565b005b61035d600480360381019061035891906126f4565b6109e7565b005b6103796004803603810190610374919061288d565b610a49565b6040516103869190612c7f565b60405180910390f35b6103a960048036038101906103a491906127ab565b610a5b565b005b6103c560048036038101906103c09190612669565b610a94565b6040516103d29190612c64565b60405180910390f35b6103f560048036038101906103f09190612640565b610b28565b005b600061040282610bac565b9050919050565b60606000805461041890613090565b80601f016020809104026020016040519081016040528092919081815260200182805461044490613090565b80156104915780601f1061046657610100808354040283529160200191610491565b820191906000526020600020905b81548152906001019060200180831161047457829003601f168201915b5050505050905090565b60006104a682610c26565b6004600083815260200190815260200160002060009054906101000a900473ffffffffffffffffffffffffffffffffffffffff169050919050565b60006104ec826107c2565b90508073ffffffffffffffffffffffffffffffffffffffff168373ffffffffffffffffffffffffffffffffffffffff16141561055d576040517f08c379a000000000000000000000000000000000000000000000000000000000815260040161055490612e41565b60405180910390fd5b8073ffffffffffffffffffffffffffffffffffffffff1661057c610c71565b73ffffffffffffffffffffffffffffffffffffffff1614806105ab57506105aa816105a5610c71565b610a94565b5b6105ea576040517f08c379a00000000000000000000000000000000000000000000000000000000081526004016105e190612e61565b60405180910390fd5b6105f48383610c79565b505050565b6000600880549050905090565b610617610611610c71565b82610d32565b610656576040517f08c379a000000000000000000000000000000000000000000000000000000000815260040161064d90612ca1565b60405180910390fd5b610661838383610dc7565b505050565b600061067183610849565b82106106b2576040517f08c379a00000000000000000000000000000000000000000000000000000000081526004016106a990612cc1565b60405180910390fd5b600660008473ffffffffffffffffffffffffffffffffffffffff1673ffffffffffffffffffffffffffffffffffffffff168152602001908152602001600020600083815260200190815260200160002054905092915050565b610726838383604051806020016040528060008152506109e7565b505050565b60006107356105f9565b8210610776576040517f08c379a000000000000000000000000000000000000000000000000000000000815260040161076d90612e81565b60405180910390fd5b600882815481106107b0577f4e487b7100000000000000000000000000000000000000000000000000000000600052603260045260246000fd5b90600052602060002001549050919050565b6000806107ce836110c1565b9050600073ffffffffffffffffffffffffffffffffffffffff168173ffffffffffffffffffffffffffffffffffffffff161415610840576040517f08c379a000000000000000000000000000000000000000000000000000000000815260040161083790612e21565b60405180910390fd5b80915050919050565b60008073ffffffffffffffffffffffffffffffffffffffff168273ffffffffffffffffffffffffffffffffffffffff1614156108ba576040517f08c379a00000000000000000000000000000000000000000000000000000000081526004016108b190612da1565b60405180910390fd5b600360008373ffffffffffffffffffffffffffffffffffffffff1673ffffffffffffffffffffffffffffffffffffffff168152602001908152602001600020549050919050565b6109096110fe565b610913600061117c565b565b6000600b60009054906101000a900473ffffffffffffffffffffffffffffffffffffffff16905090565b60606001805461094e90613090565b80601f016020809104026020016040519081016040528092919081815260200182805461097a90613090565b80156109c75780601f1061099c576101008083540402835291602001916109c7565b820191906000526020600020905b8154815290600101906020018083116109aa57829003601f168201915b5050505050905090565b6109e36109dc610c71565b8383611242565b5050565b6109f86109f2610c71565b83610d32565b610a37576040517f08c379a0000000000000000000000000000000000000000000000000000000008152600401610a2e90612ca1565b60405180910390fd5b610a43848484846113af565b50505050565b6060610a548261140b565b9050919050565b610a636110fe565b6000610a6f600c61151e565b9050610a7b600c61152c565b610a858382611542565b610a8f8183611560565b505050565b6000600560008473ffffffffffffffffffffffffffffffffffffffff1673ffffffffffffffffffffffffffffffffffffffff16815260200190815260200160002060008373ffffffffffffffffffffffffffffffffffffffff1673ffffffffffffffffffffffffffffffffffffffff16815260200190815260200160002060009054906101000a900460ff16905092915050565b610b306110fe565b600073ffffffffffffffffffffffffffffffffffffffff168173ffffffffffffffffffffffffffffffffffffffff161415610ba0576040517f08c379a0000000000000000000000000000000000000000000000000000000008152600401610b9790612d01565b60405180910390fd5b610ba98161117c565b50565b60007f780e9d63000000000000000000000000000000000000000000000000000000007bffffffffffffffffffffffffffffffffffffffffffffffffffffffff1916827bffffffffffffffffffffffffffffffffffffffffffffffffffffffff19161480610c1f5750610c1e826115d4565b5b9050919050565b610c2f816116b6565b610c6e576040517f08c379a0000000000000000000000000000000000000000000000000000000008152600401610c6590612e21565b60405180910390fd5b50565b600033905090565b816004600083815260200190815260200160002060006101000a81548173ffffffffffffffffffffffffffffffffffffffff021916908373ffffffffffffffffffffffffffffffffffffffff160217905550808273ffffffffffffffffffffffffffffffffffffffff16610cec836107c2565b73ffffffffffffffffffffffffffffffffffffffff167f8c5be1e5ebec7d5bd14f71427d1e84f3dd0314c0f7b2291e5b200ac8c7c3b92560405160405180910390a45050565b600080610d3e836107c2565b90508073ffffffffffffffffffffffffffffffffffffffff168473ffffffffffffffffffffffffffffffffffffffff161480610d805750610d7f8185610a94565b5b80610dbe57508373ffffffffffffffffffffffffffffffffffffffff16610da68461049b565b73ffffffffffffffffffffffffffffffffffffffff16145b91505092915050565b8273ffffffffffffffffffffffffffffffffffffffff16610de7826107c2565b73ffffffffffffffffffffffffffffffffffffffff1614610e3d576040517f08c379a0000000000000000000000000000000000000000000000000000000008152600401610e3490612d21565b60405180910390fd5b600073ffffffffffffffffffffffffffffffffffffffff168273ffffffffffffffffffffffffffffffffffffffff161415610ead576040517f08c379a0000000000000000000000000000000000000000000000000000000008152600401610ea490612d61565b60405180910390fd5b610eba83838360016116f7565b8273ffffffffffffffffffffffffffffffffffffffff16610eda826107c2565b73ffffffffffffffffffffffffffffffffffffffff1614610f30576040517f08c379a0000000000000000000000000000000000000000000000000000000008152600401610f2790612d21565b60405180910390fd5b6004600082815260200190815260200160002060006101000a81549073ffffffffffffffffffffffffffffffffffffffff02191690556001600360008573ffffffffffffffffffffffffffffffffffffffff1673ffffffffffffffffffffffffffffffffffffffff168152602001908152602001600020600082825403925050819055506001600360008473ffffffffffffffffffffffffffffffffffffffff1673ffffffffffffffffffffffffffffffffffffffff16815260200190815260200160002060008282540192505081905550816002600083815260200190815260200160002060006101000a81548173ffffffffffffffffffffffffffffffffffffffff021916908373ffffffffffffffffffffffffffffffffffffffff160217905550808273ffffffffffffffffffffffffffffffffffffffff168473ffffffffffffffffffffffffffffffffffffffff167fddf252ad1be2c89b69c2b068fc378daa952ba7f163c4a11628f55a4df523b3ef60405160405180910390a46110bc8383836001611709565b505050565b60006002600083815260200190815260200160002060009054906101000a900473ffffffffffffffffffffffffffffffffffffffff169050919050565b611106610c71565b73ffffffffffffffffffffffffffffffffffffffff16611124610915565b73ffffffffffffffffffffffffffffffffffffffff161461117a576040517f08c379a000000000000000000000000000000000000000000000000000000000815260040161117190612e01565b60405180910390fd5b565b6000600b60009054906101000a900473ffffffffffffffffffffffffffffffffffffffff16905081600b60006101000a81548173ffffffffffffffffffffffffffffffffffffffff021916908373ffffffffffffffffffffffffffffffffffffffff1602179055508173ffffffffffffffffffffffffffffffffffffffff168173ffffffffffffffffffffffffffffffffffffffff167f8be0079c531659141344cd1fd0a4f28419497f9722a3daafe3b4186f6b6457e060405160405180910390a35050565b8173ffffffffffffffffffffffffffffffffffffffff168373ffffffffffffffffffffffffffffffffffffffff1614156112b1576040517f08c379a00000000000000000000000000000000000000000000000000000000081526004016112a890612d81565b60405180910390fd5b80600560008573ffffffffffffffffffffffffffffffffffffffff1673ffffffffffffffffffffffffffffffffffffffff16815260200190815260200160002060008473ffffffffffffffffffffffffffffffffffffffff1673ffffffffffffffffffffffffffffffffffffffff16815260200190815260200160002060006101000a81548160ff0219169083151502179055508173ffffffffffffffffffffffffffffffffffffffff168373ffffffffffffffffffffffffffffffffffffffff167f17307eab39ab6107e8899845ad3d59bd9653f200f220920489ca2b5937696c31836040516113a29190612c64565b60405180910390a3505050565b6113ba848484610dc7565b6113c68484848461170f565b611405576040517f08c379a00000000000000000000000000000000000000000000000000000000081526004016113fc90612ce1565b60405180910390fd5b50505050565b606061141682610c26565b6000600a6000848152602001908152602001600020805461143690613090565b80601f016020809104026020016040519081016040528092919081815260200182805461146290613090565b80156114af5780601f10611484576101008083540402835291602001916114af565b820191906000526020600020905b81548152906001019060200180831161149257829003601f168201915b5050505050905060006114c06118a6565b90506000815114156114d6578192505050611519565b60008251111561150b5780826040516020016114f3929190612bd9565b60405160208183030381529060405292505050611519565b611514846118bd565b925050505b919050565b600081600001549050919050565b6001816000016000828254019250508190555050565b61155c828260405180602001604052806000815250611925565b5050565b611569826116b6565b6115a8576040517f08c379a000000000000000000000000000000000000000000000000000000000815260040161159f90612dc1565b60405180910390fd5b80600a600084815260200190815260200160002090805190602001906115cf929190612464565b505050565b60007f80ac58cd000000000000000000000000000000000000000000000000000000007bffffffffffffffffffffffffffffffffffffffffffffffffffffffff1916827bffffffffffffffffffffffffffffffffffffffffffffffffffffffff1916148061169f57507f5b5e139f000000000000000000000000000000000000000000000000000000007bffffffffffffffffffffffffffffffffffffffffffffffffffffffff1916827bffffffffffffffffffffffffffffffffffffffffffffffffffffffff1916145b806116af57506116ae82611980565b5b9050919050565b60008073ffffffffffffffffffffffffffffffffffffffff166116d8836110c1565b73ffffffffffffffffffffffffffffffffffffffff1614159050919050565b611703848484846119ea565b50505050565b50505050565b60006117308473ffffffffffffffffffffffffffffffffffffffff16611b4a565b15611899578373ffffffffffffffffffffffffffffffffffffffff1663150b7a02611759610c71565b8786866040518563ffffffff1660e01b815260040161177b9493929190612c18565b602060405180830381600087803b15801561179557600080fd5b505af19250505080156117c657506040513d601f19601f820116820180604052508101906117c39190612864565b60015b611849573d80600081146117f6576040519150601f19603f3d011682016040523d82523d6000602084013e6117fb565b606091505b50600081511415611841576040517f08c379a000000000000000000000000000000000000000000000000000000000815260040161183890612ce1565b60405180910390fd5b805181602001fd5b63150b7a0260e01b7bffffffffffffffffffffffffffffffffffffffffffffffffffffffff1916817bffffffffffffffffffffffffffffffffffffffffffffffffffffffff19161491505061189e565b600190505b949350505050565b606060405180602001604052806000815250905090565b60606118c882610c26565b60006118d26118a6565b905060008151116118f2576040518060200160405280600081525061191d565b806118fc84611b6d565b60405160200161190d929190612bd9565b6040516020818303038152906040525b915050919050565b61192f8383611c91565b61193c600084848461170f565b61197b576040517f08c379a000000000000000000000000000000000000000000000000000000000815260040161197290612ce1565b60405180910390fd5b505050565b60007f01ffc9a7000000000000000000000000000000000000000000000000000000007bffffffffffffffffffffffffffffffffffffffffffffffffffffffff1916827bffffffffffffffffffffffffffffffffffffffffffffffffffffffff1916149050919050565b6119f684848484611eaf565b6001811115611a3a576040517f08c379a0000000000000000000000000000000000000000000000000000000008152600401611a3190612ea1565b60405180910390fd5b6000829050600073ffffffffffffffffffffffffffffffffffffffff168573ffffffffffffffffffffffffffffffffffffffff161415611a8257611a7d81611eb5565b611ac1565b8373ffffffffffffffffffffffffffffffffffffffff168573ffffffffffffffffffffffffffffffffffffffff1614611ac057611abf8582611efe565b5b5b600073ffffffffffffffffffffffffffffffffffffffff168473ffffffffffffffffffffffffffffffffffffffff161415611b0457611aff8161206b565b611b43565b8473ffffffffffffffffffffffffffffffffffffffff168473ffffffffffffffffffffffffffffffffffffffff1614611b4257611b4184826121ae565b5b5b5050505050565b6000808273ffffffffffffffffffffffffffffffffffffffff163b119050919050565b606060006001611b7c8461222d565b01905060008167ffffffffffffffff811115611bc1577f4e487b7100000000000000000000000000000000000000000000000000000000600052604160045260246000fd5b6040519080825280601f01601f191660200182016040528015611bf35781602001600182028036833780820191505090505b509050600082602001820190505b600115611c86578080600190039150507f3031323334353637383961626364656600000000000000000000000000000000600a86061a8153600a8581611c70577f4e487b7100000000000000000000000000000000000000000000000000000000600052601260045260246000fd5b0494506000851415611c8157611c86565b611c01565b819350505050919050565b600073ffffffffffffffffffffffffffffffffffffffff168273ffffffffffffffffffffffffffffffffffffffff161415611d01576040517f08c379a0000000000000000000000000000000000000000000000000000000008152600401611cf890612de1565b60405180910390fd5b611d0a816116b6565b15611d4a576040517f08c379a0000000000000000000000000000000000000000000000000000000008152600401611d4190612d41565b60405180910390fd5b611d586000838360016116f7565b611d61816116b6565b15611da1576040517f08c379a0000000000000000000000000000000000000000000000000000000008152600401611d9890612d41565b60405180910390fd5b6001600360008473ffffffffffffffffffffffffffffffffffffffff1673ffffffffffffffffffffffffffffffffffffffff16815260200190815260200160002060008282540192505081905550816002600083815260200190815260200160002060006101000a81548173ffffffffffffffffffffffffffffffffffffffff021916908373ffffffffffffffffffffffffffffffffffffffff160217905550808273ffffffffffffffffffffffffffffffffffffffff16600073ffffffffffffffffffffffffffffffffffffffff167fddf252ad1be2c89b69c2b068fc378daa952ba7f163c4a11628f55a4df523b3ef60405160405180910390a4611eab600083836001611709565b5050565b50505050565b6008805490506009600083815260200190815260200160002081905550600881908060018154018082558091505060019003906000526020600020016000909190919091505550565b60006001611f0b84610849565b611f159190612fa6565b9050600060076000848152602001908152602001600020549050818114611ffa576000600660008673ffffffffffffffffffffffffffffffffffffffff1673ffffffffffffffffffffffffffffffffffffffff168152602001908152602001600020600084815260200190815260200160002054905080600660008773ffffffffffffffffffffffffffffffffffffffff1673ffffffffffffffffffffffffffffffffffffffff168152602001908152602001600020600084815260200190815260200160002081905550816007600083815260200190815260200160002081905550505b6007600084815260200190815260200160002060009055600660008573ffffffffffffffffffffffffffffffffffffffff1673ffffffffffffffffffffffffffffffffffffffff16815260200190815260200160002060008381526020019081526020016000206000905550505050565b6000600160088054905061207f9190612fa6565b90506000600960008481526020019081526020016000205490506000600883815481106120d5577f4e487b7100000000000000000000000000000000000000000000000000000000600052603260045260246000fd5b90600052602060002001549050806008838154811061211d577f4e487b7100000000000000000000000000000000000000000000000000000000600052603260045260246000fd5b906000526020600020018190555081600960008381526020019081526020016000208190555060096000858152602001908152602001600020600090556008805480612192577f4e487b7100000000000000000000000000000000000000000000000000000000600052603160045260246000fd5b6001900381819060005260206000200160009055905550505050565b60006121b983610849565b905081600660008573ffffffffffffffffffffffffffffffffffffffff1673ffffffffffffffffffffffffffffffffffffffff168152602001908152602001600020600083815260200190815260200160002081905550806007600084815260200190815260200160002081905550505050565b600080600090507a184f03e93ff9f4daa797ed6e38ed64bf6a1f01000000000000000083106122b1577a184f03e93ff9f4daa797ed6e38ed64bf6a1f01000000000000000083816122a7577f4e487b7100000000000000000000000000000000000000000000000000000000600052601260045260246000fd5b0492506040810190505b6d04ee2d6d415b85acef81000000008310612314576d04ee2d6d415b85acef8100000000838161230a577f4e487b7100000000000000000000000000000000000000000000000000000000600052601260045260246000fd5b0492506020810190505b662386f26fc10000831061236957662386f26fc10000838161235f577f4e487b7100000000000000000000000000000000000000000000000000000000600052601260045260246000fd5b0492506010810190505b6305f5e10083106123b8576305f5e10083816123ae577f4e487b7100000000000000000000000000000000000000000000000000000000600052601260045260246000fd5b0492506008810190505b61271083106124035761271083816123f9577f4e487b7100000000000000000000000000000000000000000000000000000000600052601260045260246000fd5b0492506004810190505b6064831061244c5760648381612442577f4e487b7100000000000000000000000000000000000000000000000000000000600052601260045260246000fd5b0492506002810190505b600a831061245b576001810190505b80915050919050565b82805461247090613090565b90600052602060002090601f01602090048101928261249257600085556124d9565b82601f106124ab57805160ff19168380011785556124d9565b828001600101855582156124d9579182015b828111156124d85782518255916020019190600101906124bd565b5b5090506124e691906124ea565b5090565b5b808211156125035760008160009055506001016124eb565b5090565b600061251a61251584612f01565b612edc565b90508281526020810184848401111561253257600080fd5b61253d84828561304e565b509392505050565b600061255861255384612f32565b612edc565b90508281526020810184848401111561257057600080fd5b61257b84828561304e565b509392505050565b60008135905061259281613612565b92915050565b6000813590506125a781613629565b92915050565b6000813590506125bc81613640565b92915050565b6000815190506125d181613640565b92915050565b600082601f8301126125e857600080fd5b81356125f8848260208601612507565b91505092915050565b600082601f83011261261257600080fd5b8135612622848260208601612545565b91505092915050565b60008135905061263a81613657565b92915050565b60006020828403121561265257600080fd5b600061266084828501612583565b91505092915050565b6000806040838503121561267c57600080fd5b600061268a85828601612583565b925050602061269b85828601612583565b9150509250929050565b6000806000606084860312156126ba57600080fd5b60006126c886828701612583565b93505060206126d986828701612583565b92505060406126ea8682870161262b565b9150509250925092565b6000806000806080858703121561270a57600080fd5b600061271887828801612583565b945050602061272987828801612583565b935050604061273a8782880161262b565b925050606085013567ffffffffffffffff81111561275757600080fd5b612763878288016125d7565b91505092959194509250565b6000806040838503121561278257600080fd5b600061279085828601612583565b92505060206127a185828601612598565b9150509250929050565b600080604083850312156127be57600080fd5b60006127cc85828601612583565b925050602083013567ffffffffffffffff8111156127e957600080fd5b6127f585828601612601565b9150509250929050565b6000806040838503121561281257600080fd5b600061282085828601612583565b92505060206128318582860161262b565b9150509250929050565b60006020828403121561284d57600080fd5b600061285b848285016125ad565b91505092915050565b60006020828403121561287657600080fd5b6000612884848285016125c2565b91505092915050565b60006020828403121561289f57600080fd5b60006128ad8482850161262b565b91505092915050565b6128bf81612fda565b82525050565b6128ce81612fec565b82525050565b60006128df82612f63565b6128e98185612f79565b93506128f981856020860161305d565b61290281613180565b840191505092915050565b600061291882612f6e565b6129228185612f8a565b935061293281856020860161305d565b61293b81613180565b840191505092915050565b600061295182612f6e565b61295b8185612f9b565b935061296b81856020860161305d565b80840191505092915050565b6000612984602d83612f8a565b915061298f82613191565b604082019050919050565b60006129a7602b83612f8a565b91506129b2826131e0565b604082019050919050565b60006129ca603283612f8a565b91506129d58261322f565b604082019050919050565b60006129ed602683612f8a565b91506129f88261327e565b604082019050919050565b6000612a10602583612f8a565b9150612a1b826132cd565b604082019050919050565b6000612a33601c83612f8a565b9150612a3e8261331c565b602082019050919050565b6000612a56602483612f8a565b9150612a6182613345565b604082019050919050565b6000612a79601983612f8a565b9150612a8482613394565b602082019050919050565b6000612a9c602983612f8a565b9150612aa7826133bd565b604082019050919050565b6000612abf602e83612f8a565b9150612aca8261340c565b604082019050919050565b6000612ae2602083612f8a565b9150612aed8261345b565b602082019050919050565b6000612b05602083612f8a565b9150612b1082613484565b602082019050919050565b6000612b28601883612f8a565b9150612b33826134ad565b602082019050919050565b6000612b4b602183612f8a565b9150612b56826134d6565b604082019050919050565b6000612b6e603d83612f8a565b9150612b7982613525565b604082019050919050565b6000612b91602c83612f8a565b9150612b9c82613574565b604082019050919050565b6000612bb4603583612f8a565b9150612bbf826135c3565b604082019050919050565b612bd381613044565b82525050565b6000612be58285612946565b9150612bf18284612946565b91508190509392505050565b6000602082019050612c1260008301846128b6565b92915050565b6000608082019050612c2d60008301876128b6565b612c3a60208301866128b6565b612c476040830185612bca565b8181036060830152612c5981846128d4565b905095945050505050565b6000602082019050612c7960008301846128c5565b92915050565b60006020820190508181036000830152612c99818461290d565b905092915050565b60006020820190508181036000830152612cba81612977565b9050919050565b60006020820190508181036000830152612cda8161299a565b9050919050565b60006020820190508181036000830152612cfa816129bd565b9050919050565b60006020820190508181036000830152612d1a816129e0565b9050919050565b60006020820190508181036000830152612d3a81612a03565b9050919050565b60006020820190508181036000830152612d5a81612a26565b9050919050565b60006020820190508181036000830152612d7a81612a49565b9050919050565b60006020820190508181036000830152612d9a81612a6c565b9050919050565b60006020820190508181036000830152612dba81612a8f565b9050919050565b60006020820190508181036000830152612dda81612ab2565b9050919050565b60006020820190508181036000830152612dfa81612ad5565b9050919050565b60006020820190508181036000830152612e1a81612af8565b9050919050565b60006020820190508181036000830152612e3a81612b1b565b9050919050565b60006020820190508181036000830152612e5a81612b3e565b9050919050565b60006020820190508181036000830152612e7a81612b61565b9050919050565b60006020820190508181036000830152612e9a81612b84565b9050919050565b60006020820190508181036000830152612eba81612ba7565b9050919050565b6000602082019050612ed66000830184612bca565b92915050565b6000612ee6612ef7565b9050612ef282826130c2565b919050565b6000604051905090565b600067ffffffffffffffff821115612f1c57612f1b613151565b5b612f2582613180565b9050602081019050919050565b600067ffffffffffffffff821115612f4d57612f4c613151565b5b612f5682613180565b9050602081019050919050565b600081519050919050565b600081519050919050565b600082825260208201905092915050565b600082825260208201905092915050565b600081905092915050565b6000612fb182613044565b9150612fbc83613044565b925082821015612fcf57612fce6130f3565b5b828203905092915050565b6000612fe582613024565b9050919050565b60008115159050919050565b60007fffffffff0000000000000000000000000000000000000000000000000000000082169050919050565b600073ffffffffffffffffffffffffffffffffffffffff82169050919050565b6000819050919050565b82818337600083830152505050565b60005b8381101561307b578082015181840152602081019050613060565b8381111561308a576000848401525b50505050565b600060028204905060018216806130a857607f821691505b602082108114156130bc576130bb613122565b5b50919050565b6130cb82613180565b810181811067ffffffffffffffff821117156130ea576130e9613151565b5b80604052505050565b7f4e487b7100000000000000000000000000000000000000000000000000000000600052601160045260246000fd5b7f4e487b7100000000000000000000000000000000000000000000000000000000600052602260045260246000fd5b7f4e487b7100000000000000000000000000000000000000000000000000000000600052604160045260246000fd5b6000601f19601f8301169050919050565b7f4552433732313a2063616c6c6572206973206e6f7420746f6b656e206f776e6560008201527f72206f7220617070726f76656400000000000000000000000000000000000000602082015250565b7f455243373231456e756d657261626c653a206f776e657220696e646578206f7560008201527f74206f6620626f756e6473000000000000000000000000000000000000000000602082015250565b7f4552433732313a207472616e7366657220746f206e6f6e20455243373231526560008201527f63656976657220696d706c656d656e7465720000000000000000000000000000602082015250565b7f4f776e61626c653a206e6577206f776e657220697320746865207a65726f206160008201527f6464726573730000000000000000000000000000000000000000000000000000602082015250565b7f4552433732313a207472616e736665722066726f6d20696e636f72726563742060008201527f6f776e6572000000000000000000000000000000000000000000000000000000602082015250565b7f4552433732313a20746f6b656e20616c7265616479206d696e74656400000000600082015250565b7f4552433732313a207472616e7366657220746f20746865207a65726f2061646460008201527f7265737300000000000000000000000000000000000000000000000000000000602082015250565b7f4552433732313a20617070726f766520746f2063616c6c657200000000000000600082015250565b7f4552433732313a2061646472657373207a65726f206973206e6f74206120766160008201527f6c6964206f776e65720000000000000000000000000000000000000000000000602082015250565b7f45524337323155524953746f726167653a2055524920736574206f66206e6f6e60008201527f6578697374656e7420746f6b656e000000000000000000000000000000000000602082015250565b7f4552433732313a206d696e7420746f20746865207a65726f2061646472657373600082015250565b7f4f776e61626c653a2063616c6c6572206973206e6f7420746865206f776e6572600082015250565b7f4552433732313a20696e76616c696420746f6b656e2049440000000000000000600082015250565b7f4552433732313a20617070726f76616c20746f2063757272656e74206f776e6560008201527f7200000000000000000000000000000000000000000000000000000000000000602082015250565b7f4552433732313a20617070726f76652063616c6c6572206973206e6f7420746f60008201527f6b656e206f776e6572206f7220617070726f76656420666f7220616c6c000000602082015250565b7f455243373231456e756d657261626c653a20676c6f62616c20696e646578206f60008201527f7574206f6620626f756e64730000000000000000000000000000000000000000602082015250565b7f455243373231456e756d657261626c653a20636f6e736563757469766520747260008201527f616e7366657273206e6f7420737570706f727465640000000000000000000000602082015250565b61361b81612fda565b811461362657600080fd5b50565b61363281612fec565b811461363d57600080fd5b50565b61364981612ff8565b811461365457600080fd5b50565b61366081613044565b811461366b57600080fd5b5056fea26469706673582212206aa935248e5d2dab00e691287f9aada22ce91b3ab3c70ebae4d5155d4afc3b8c64736f6c63430008040033",
  "linkReferences": {},
  "deployedLinkReferences": {}
}